S0130000546573745F426C696E6B792E73726563A9
S11300000C9434000C943E000C943E000C943E007E
S11300100C943E000C943E000C943E000C943E0064
S11300200C943E000C943E000C943E000C943E0054
S11300300C943E000C943E000C943E000C943E0044
S11300400C943E000C943E000C943E000C943E0034
S11300500C943E000C943E000C943E000C943E0024
S11300600C943E000C943E0011241FBECFEFD8E048
S1130070DEBFCDBF0E946D000C947F000C94000085
S11300801092B90088E48093B80084E08093BC00A7
S1130090089584EA8093BC008091BC008823E4F72F
S11300A0089584E98093BC0008958093BB0084E89C
S11300B08093BC008091BC008823E4F70895CF931B
S11300C0C82F0E94490080E40E9455008C2F0E9492
S11300D055000E945100CF9108950E944000C0E055
S11300E081E0C8278C2F0E945F002FEF89E698E1FA
S11300F0215080409040E1F700C00000F1CFF89417
S1050100FFCF2B
S9030000FC
